{
  "contractName": "Registry",
  "abi": [
    {
      "constant": false,
      "inputs": [],
      "name": "kill",
      "outputs": [],
      "payable": false,
      "stateMutability": "nonpayable",
      "type": "function"
    },
    {
      "constant": false,
      "inputs": [
        {
          "name": "name",
          "type": "bytes32"
        },
        {
          "name": "contractAddress",
          "type": "address"
        }
      ],
      "name": "addAddress",
      "outputs": [],
      "payable": false,
      "stateMutability": "nonpayable",
      "type": "function"
    },
    {
      "constant": true,
      "inputs": [
        {
          "name": "",
          "type": "bytes32"
        },
        {
          "name": "",
          "type": "uint256"
        }
      ],
      "name": "contractNameWithAddress",
      "outputs": [
        {
          "name": "",
          "type": "address"
        }
      ],
      "payable": false,
      "stateMutability": "view",
      "type": "function"
    },
    {
      "constant": false,
      "inputs": [
        {
          "name": "name",
          "type": "bytes32"
        }
      ],
      "name": "getAllAddressOfContract",
      "outputs": [
        {
          "name": "addressess",
          "type": "address[]"
        }
      ],
      "payable": false,
      "stateMutability": "nonpayable",
      "type": "function"
    }
  ],
  "bytecode": "0x6060604052336000806101000a81548173ffffffffffffffffffffffffffffffffffffffff021916908373ffffffffffffffffffffffffffffffffffffffff160217905550610588806100536000396000f300606060405260043610610062576000357c0100000000000000000000000000000000000000000000000000000000900463ffffffff16806341c0e1b514610067578063b348e6391461007c578063d436f0c8146100c2578063f7cde38514610132575b600080fd5b341561007257600080fd5b61007a6101ae565b005b341561008757600080fd5b6100c060048080356000191690602001909190803573ffffffffffffffffffffffffffffffffffffffff1690602001909190505061023f565b005b34156100cd57600080fd5b6100f0600480803560001916906020019091908035906020019091905050610365565b604051808273ffffffffffffffffffffffffffffffffffffffff1673ffffffffffffffffffffffffffffffffffffffff16815260200191505060405180910390f35b341561013d57600080fd5b6101576004808035600019169060200190919050506103b3565b6040518080602001828103825283818151815260200191508051906020019060200280838360005b8381101561019a57808201518184015260208101905061017f565b505050509050019250505060405180910390f35b6000809054906101000a900473ffffffffffffffffffffffffffffffffffffffff1673ffffffffffffffffffffffffffffffffffffffff163373ffffffffffffffffffffffffffffffffffffffff16141561023d576000809054906101000a900473ffffffffffffffffffffffffffffffffffffffff1673ffffffffffffffffffffffffffffffffffffffff16ff5b565b600060016000846000191660001916815260200190815260200160002090506000818054905011156102d25780805480600101828161027e9190610462565b9160005260206000209001600084909190916101000a81548173ffffffffffffffffffffffffffffffffffffffff021916908373ffffffffffffffffffffffffffffffffffffffff16021790555050610360565b8080548060010182816102e59190610462565b9160005260206000209001600084909190916101000a81548173ffffffffffffffffffffffffffffffffffffffff021916908373ffffffffffffffffffffffffffffffffffffffff160217905550508060016000856000191660001916815260200190815260200160002090805461035e92919061048e565b505b505050565b60016020528160005260406000208181548110151561038057fe5b90600052602060002090016000915091509054906101000a900473ffffffffffffffffffffffffffffffffffffffff1681565b6103bb6104e0565b60016000836000191660001916815260200190815260200160002080548060200260200160405190810160405280929190818152602001828054801561045657602002820191906000526020600020905b8160009054906101000a900473ffffffffffffffffffffffffffffffffffffffff1673ffffffffffffffffffffffffffffffffffffffff168152602001906001019080831161040c575b50505050509050919050565b8154818355818115116104895781836000526020600020918201910161048891906104f4565b5b505050565b8280548282559060005260206000209081019282156104cf5760005260206000209182015b828111156104ce5782548255916001019190600101906104b3565b5b5090506104dc9190610519565b5090565b602060405190810160405280600081525090565b61051691905b808211156105125760008160009055506001016104fa565b5090565b90565b61055991905b8082111561055557600081816101000a81549073ffffffffffffffffffffffffffffffffffffffff02191690555060010161051f565b5090565b905600a165627a7a7230582034a886bd69d241f4a7ce2bb28ac707f9b0a7fb0687968a35f91e1a6ad180560b0029",
  "source": "pragma solidity ^0.4.1;\n\nimport \"./common.sol\";\n\ncontract Registry is mortal {\n\n    mapping (bytes32 => address[]) public contractNameWithAddress;\n    \n    function addAddress(bytes32 name, address contractAddress) {\n      address[] conAdd = contractNameWithAddress[name];\n      if(conAdd.length > 0) {\n        conAdd.push(contractAddress);\n      } else {\n        conAdd.push(contractAddress);\n        contractNameWithAddress[name] = conAdd;\n      }\n    }\n\n    function getAllAddressOfContract(bytes32 name) returns(address[] addressess) {    \n      return contractNameWithAddress[name];\n    }\n}",
  "sourcePath": "/home/cabox/workspace/Blockchain/smart contracts/contracts/Registry.sol",
  "compiler": {
    "name": "solc",
    "version": "0.4.18+commit.9cf6e910.Emscripten.clang"
  },
  "schemaVersion": "1.0.1",
  "updatedAt": "2017-12-04T09:59:11.699Z"
}